:1000000012C052C055C017C016C015C014C013C0CE
:100010008AC011C010C00FC00EC00DC00CC00BC0F4
:100020000AC009C008C011241FBECFE5D4E0DEBF5E
:10003000CDBF03D07AC000C018953ED002D0FECF0D
:1000400008958EF51C7016951695222349F02130DF
:1000500071F0223099F02330C1F0212FE8940895F7
:100060001130D1F01230E1F0212FE89408951330CF
:1000700099F01123A9F0212FE8940895112361F03C
:10008000133071F0212FE8940895123029F01130C7
:1000900039F0212FE89408951ED0212FE894089577
:1000A0001FD0212FE894089516F010B36894189586
:1000B00016F010B3689418958A98929A8B98939A30
:1000C00020B32C702695269505E005BF0BB7006C74
:1000D0000BBF789408958E9A8F9A969A9798089560
:1000E0008E9A8F9A9698979A08950FEFF02E0CE3B8
:1000F0000DBD0CE80CBD03E00EBD046009BF789493
:10010000FF20F1F70B7F08950FEFF02E0BE00DBDF0
:1001100008EB0CBD02E00EBD046009BF7894FF201F
:0E012000F1F70B7F0895FF241895F894FFCF98
:00000001FF
