:1000000012C02AC018C017C016C015C014C013C033
:1000100074C011C010C00FC00EC00DC00CC00BC00A
:100020000AC009C008C011241FBECFE5D4E0DEBF5E
:10003000CDBF03D064C000C018952AD020E003D003
:100040003CD0FDCF0895213019F0223019F003C0C3
:100050002AD001C02DD0089511271ABF10B31C70EB
:10006000183019F0143019F0189521E0189522E095
:1000700034D0189511271ABF10B31C70183019F01E
:10008000143019F0189521E0189522E026D0189523
:100090008A98929A8B98939A0AE005BF0BB7006CE6
:1000A0000BBF789408958E9A8F9A969A9798089590
:1000B0008E9A8F9A9698979A08950FEFF02E0CE3E8
:1000C0000DBD0CE80CBD03E00EBD046009BF7894C3
:1000D000FF20F1F70B7F09BF08950FEFF02E0BE023
:1000E0000DBD08EB0CBD02E00EBD046009BF7894A5
:1000F000FF20F1F70B7F09BF0895FF241895F894AE
:02010000FFCF2F
:00000001FF
