:1000000012C04DC050C017C016C015C014C013C0D8
:1000100012C011C010C00FC00EC00DC00CC00BC06C
:100020000AC009C008C011241FBECFE5D4E0DEBF5E
:10003000CDBF03D055C000C0189539D002D0FECF37
:10004000089566F51C7016951695222341F021300F
:1000500061F0223081F02330A1F0212F089511307A
:10006000B1F01230C1F0212F0895133081F0112327
:1000700091F0212F0895112351F0133061F0212FB9
:100080000895123021F0113031F0212F08951ED043
:10009000212FE89408951FD0212FE894089516F099
:1000A000689410B3189516F0689410B318958A9850
:1000B000929A8B98939A20B32C702695269505E0FA
:1000C00005BF0BB7006C0BBF789408958E9A8F9A7A
:1000D000969A979808958E9A8F9A9698979A0895D7
:0400E000F894FFCFC2
:00000001FF
